{
  "_format": "hh-sol-artifact-1",
  "contractName": "lottery",
  "sourceName": "contracts/lottery.sol",
  "abi": [
    {
      "inputs": [],
      "stateMutability": "nonpayable",
      "type": "constructor"
    },
    {
      "anonymous": false,
      "inputs": [
        {
          "indexed": true,
          "internalType": "address",
          "name": "poolOwner",
          "type": "address"
        },
        {
          "indexed": false,
          "internalType": "uint256",
          "name": "poolId",
          "type": "uint256"
        },
        {
          "indexed": false,
          "internalType": "string",
          "name": "poolName",
          "type": "string"
        },
        {
          "indexed": false,
          "internalType": "uint256",
          "name": "joiningFee",
          "type": "uint256"
        }
      ],
      "name": "LogLotteryPoolCreated",
      "type": "event"
    },
    {
      "anonymous": false,
      "inputs": [
        {
          "indexed": false,
          "internalType": "uint256",
          "name": "poolId",
          "type": "uint256"
        },
        {
          "indexed": false,
          "internalType": "string",
          "name": "poolName",
          "type": "string"
        },
        {
          "indexed": false,
          "internalType": "uint256",
          "name": "joiningFee",
          "type": "uint256"
        },
        {
          "indexed": false,
          "internalType": "uint256",
          "name": "poolAmount",
          "type": "uint256"
        },
        {
          "indexed": false,
          "internalType": "uint256",
          "name": "availableSlots",
          "type": "uint256"
        },
        {
          "indexed": false,
          "internalType": "address[]",
          "name": "members",
          "type": "address[]"
        }
      ],
      "name": "LogLotteryPoolJoined",
      "type": "event"
    },
    {
      "anonymous": false,
      "inputs": [
        {
          "indexed": false,
          "internalType": "uint256",
          "name": "poolId",
          "type": "uint256"
        },
        {
          "indexed": false,
          "internalType": "string",
          "name": "poolName",
          "type": "string"
        },
        {
          "indexed": false,
          "internalType": "uint256",
          "name": "joiningFee",
          "type": "uint256"
        },
        {
          "indexed": false,
          "internalType": "uint256",
          "name": "poolAmount",
          "type": "uint256"
        },
        {
          "indexed": false,
          "internalType": "address[]",
          "name": "members",
          "type": "address[]"
        },
        {
          "indexed": true,
          "internalType": "address",
          "name": "winner",
          "type": "address"
        }
      ],
      "name": "LogLotteryPoolWinned",
      "type": "event"
    },
    {
      "inputs": [
        {
          "internalType": "string",
          "name": "_poolName",
          "type": "string"
        },
        {
          "internalType": "uint256",
          "name": "_availableSlots",
          "type": "uint256"
        },
        {
          "internalType": "uint256",
          "name": "_joiningFee",
          "type": "uint256"
        }
      ],
      "name": "createLotteryPool",
      "outputs": [],
      "stateMutability": "payable",
      "type": "function"
    },
    {
      "inputs": [
        {
          "internalType": "uint256",
          "name": "",
          "type": "uint256"
        }
      ],
      "name": "createdPools",
      "outputs": [
        {
          "internalType": "uint256",
          "name": "",
          "type": "uint256"
        }
      ],
      "stateMutability": "view",
      "type": "function"
    },
    {
      "inputs": [
        {
          "internalType": "uint256",
          "name": "_poolId",
          "type": "uint256"
        }
      ],
      "name": "drawWinner",
      "outputs": [],
      "stateMutability": "payable",
      "type": "function"
    },
    {
      "inputs": [
        {
          "internalType": "uint256",
          "name": "_poolId",
          "type": "uint256"
        }
      ],
      "name": "getLotteryPoolById",
      "outputs": [
        {
          "components": [
            {
              "internalType": "string",
              "name": "poolName",
              "type": "string"
            },
            {
              "internalType": "uint256",
              "name": "poolId",
              "type": "uint256"
            },
            {
              "internalType": "address[]",
              "name": "members",
              "type": "address[]"
            },
            {
              "internalType": "uint256",
              "name": "availableSlots",
              "type": "uint256"
            },
            {
              "internalType": "uint256",
              "name": "joiningFee",
              "type": "uint256"
            },
            {
              "internalType": "uint256",
              "name": "poolAmount",
              "type": "uint256"
            },
            {
              "internalType": "address",
              "name": "poolOwner",
              "type": "address"
            },
            {
              "internalType": "address",
              "name": "winner",
              "type": "address"
            },
            {
              "internalType": "bool",
              "name": "isActive",
              "type": "bool"
            },
            {
              "internalType": "bool",
              "name": "isExists",
              "type": "bool"
            }
          ],
          "internalType": "struct lottery.LotteryPool",
          "name": "",
          "type": "tuple"
        }
      ],
      "stateMutability": "view",
      "type": "function"
    },
    {
      "inputs": [
        {
          "internalType": "uint256",
          "name": "_poolId",
          "type": "uint256"
        }
      ],
      "name": "getLotteryPoolMemeberById",
      "outputs": [
        {
          "components": [
            {
              "internalType": "bool",
              "name": "isJoined",
              "type": "bool"
            },
            {
              "internalType": "uint256[]",
              "name": "joinedPools",
              "type": "uint256[]"
            },
            {
              "internalType": "uint256[]",
              "name": "winnedPools",
              "type": "uint256[]"
            }
          ],
          "internalType": "struct lottery.LotteryPoolMembers",
          "name": "",
          "type": "tuple"
        }
      ],
      "stateMutability": "view",
      "type": "function"
    },
    {
      "inputs": [
        {
          "internalType": "uint256",
          "name": "_poolId",
          "type": "uint256"
        }
      ],
      "name": "joinLotteryPool",
      "outputs": [],
      "stateMutability": "payable",
      "type": "function"
    },
    {
      "inputs": [
        {
          "internalType": "address",
          "name": "",
          "type": "address"
        },
        {
          "internalType": "uint256",
          "name": "",
          "type": "uint256"
        }
      ],
      "name": "lotteryPoolMembers",
      "outputs": [
        {
          "internalType": "bool",
          "name": "isJoined",
          "type": "bool"
        }
      ],
      "stateMutability": "view",
      "type": "function"
    },
    {
      "inputs": [
        {
          "internalType": "uint256",
          "name": "",
          "type": "uint256"
        }
      ],
      "name": "lotteryPools",
      "outputs": [
        {
          "internalType": "string",
          "name": "poolName",
          "type": "string"
        },
        {
          "internalType": "uint256",
          "name": "poolId",
          "type": "uint256"
        },
        {
          "internalType": "uint256",
          "name": "availableSlots",
          "type": "uint256"
        },
        {
          "internalType": "uint256",
          "name": "joiningFee",
          "type": "uint256"
        },
        {
          "internalType": "uint256",
          "name": "poolAmount",
          "type": "uint256"
        },
        {
          "internalType": "address",
          "name": "poolOwner",
          "type": "address"
        },
        {
          "internalType": "address",
          "name": "winner",
          "type": "address"
        },
        {
          "internalType": "bool",
          "name": "isActive",
          "type": "bool"
        },
        {
          "internalType": "bool",
          "name": "isExists",
          "type": "bool"
        }
      ],
      "stateMutability": "view",
      "type": "function"
    },
    {
      "inputs": [],
      "name": "owner",
      "outputs": [
        {
          "internalType": "address payable",
          "name": "",
          "type": "address"
        }
      ],
      "stateMutability": "view",
      "type": "function"
    }
  ],
  "bytecode": "0x608060405234801561001057600080fd5b50600080546001600160a01b031916331790556115ed806100326000396000f3fe6080604052600436106100865760003560e01c80638da5cb5b116100595780638da5cb5b1461011e5780638e2b27e114610156578063a8a07586146101a1578063c61cbd13146101b4578063d2627383146101e157610086565b80634435b17c1461008b5780634445f30c146100a057806344ed3f58146100d657806360b2a56a1461010b575b600080fd5b61009e6100993660046110ec565b61020f565b005b3480156100ac57600080fd5b506100c06100bb3660046110ec565b61051f565b6040516100cd9190611349565b60405180910390f35b3480156100e257600080fd5b506100f66100f13660046110ec565b61070e565b6040516100cd9998979695949392919061129a565b61009e6101193660046110ec565b6107f6565b34801561012a57600080fd5b5060005461013e906001600160a01b031681565b6040516001600160a01b0390911681526020016100cd565b34801561016257600080fd5b50610191610171366004610ffa565b600360209081526000928352604080842090915290825290205460ff1681565b60405190151581526020016100cd565b61009e6101af366004611030565b610b4c565b3480156101c057600080fd5b506101d46101cf3660046110ec565b610de3565b6040516100cd91906112fb565b3480156101ed57600080fd5b506102016101fc3660046110ec565b610eeb565b6040519081526020016100cd565b600081815260026020526040902060070154600160a81b900460ff166102865760405162461bcd60e51b815260206004820152602160248201527f506f6f6c20646f65736e6f7420657869737473207769746820676976656e20496044820152601960fa1b60648201526084015b60405180910390fd5b600081815260026020526040902060070154600160a01b900460ff166102e35760405162461bcd60e51b8152602060048201526012602482015271506f6f6c206973206e6f742061637469766560701b604482015260640161027d565b6000818152600260205260409020600301546103305760405162461bcd60e51b815260206004820152600c60248201526b141bdbdb081a5cc8199d5b1b60a21b604482015260640161027d565b60008181526002602052604090206004015434146103a45760405162461bcd60e51b815260206004820152602b60248201527f616d6f756e74206d75737420626520657175616c20746f206a6f696e696e672060448201526a199959481bd9881c1bdbdb60aa1b606482015260840161027d565b33600090815260036020908152604080832084845290915290205460ff161561041b5760405162461bcd60e51b815260206004820152602360248201527f596f752061726520616c7265616479206a6f696e656420696e207468697320706044820152621bdbdb60ea1b606482015260840161027d565b6000818152600260208181526040832091820180546001810182559084529083200180546001600160a01b0319163317905582825260050180543492906104639084906114c4565b909155505060008181526002602052604081206003018054916104858361150f565b90915550503360009081526003602081815260408084208585528252808420805460ff1916600190811782559081018054918201815585528285200185905584845260029182905292839020600481015460058201549382015494517ff86bdb19f19aa826e176e1d82140ff7093798030e1db52349c0fd748d16f369c9561051495889590929085019061147a565b60405180910390a150565b61058b60405180610140016040528060608152602001600081526020016060815260200160008152602001600081526020016000815260200160006001600160a01b0316815260200160006001600160a01b031681526020016000151581526020016000151581525090565b60008281526002602052604090819020815161014081019092528054829082906105b490611526565b80601f01602080910402602001604051908101604052809291908181526020018280546105e090611526565b801561062d5780601f106106025761010080835404028352916020019161062d565b820191906000526020600020905b81548152906001019060200180831161061057829003601f168201915b50505050508152602001600182015481526020016002820180548060200260200160405190810160405280929190818152602001828054801561069957602002820191906000526020600020905b81546001600160a01b0316815260019091019060200180831161067b575b505050918352505060038201546020820152600482015460408201526005820154606082015260068201546001600160a01b03908116608083015260079092015491821660a082015260ff600160a01b83048116151560c0830152600160a81b909204909116151560e0909101529050919050565b60026020526000908152604090208054819061072990611526565b80601f016020809104026020016040519081016040528092919081815260200182805461075590611526565b80156107a25780601f10610777576101008083540402835291602001916107a2565b820191906000526020600020905b81548152906001019060200180831161078557829003601f168201915b5050506001840154600385015460048601546005870154600688015460079098015496979396929550909350916001600160a01b03908116919081169060ff600160a01b8204811691600160a81b90041689565b6000546001600160a01b031633146108505760405162461bcd60e51b815260206004820181905260248201527f4f6e6c7920706f6f6c206f776e65722063616e20647261772077696e6e657273604482015260640161027d565b600081815260026020526040902060070154600160a01b900460ff166108b85760405162461bcd60e51b815260206004820181905260248201527f506f6f6c206973206e6f7420616374697665207769746820676976656e204964604482015260640161027d565b6000818152600260205260409020600301541561090f5760405162461bcd60e51b81526020600482015260156024820152740506f6f6c206973206e6f742066696c6c656420757605c1b604482015260640161027d565b60008181526002602052604081206005015460649061092f90600a6114f0565b61093991906114dc565b6000838152600260205260408120600501549192509060649061095d90605a6114f0565b61096791906114dc565b600080546040519293506001600160a01b03169184156108fc0291859190818181858888f193505050501580156109a2573d6000803e3d6000fd5b5060008381526002602081815260408084209092015491516109d99244924292019283526020830191909152604082015260600190565b60408051601f19818403018152918152815160209283012060008781526002938490529182209092015491925090610a119083611561565b90506000600260008781526020019081526020016000206002018281548110610a4a57634e487b7160e01b600052603260045260246000fd5b60009182526020822001546040516001600160a01b039091169250829186156108fc02918791818181858888f19350505050158015610a8d573d6000803e3d6000fd5b5060008681526002602081815260408084206007810180546001600160a01b0319166001600160a01b038881169182178355908752600385528387208d8852855283872086018054600181018255908852858820018d9055958c905292849052825460ff60a01b19811690935560048101546005820154925193909516947f293c9f655bce43bd3c117702b69e833cf33ef35a999224abe5289ce386f9011994610b3c948d9491840190611437565b60405180910390a2505050505050565b6000546001600160a01b03163314610bb75760405162461bcd60e51b815260206004820152602860248201527f4f6e6c79206f776e65722063616e206372656174652061206e6577206c6f7474604482015267195c9e481c1bdbdb60c21b606482015260840161027d565b60018211610c165760405162461bcd60e51b815260206004820152602660248201527f417661696c61626c6520736c6f7473206d7573742062652067726561746572206044820152657468616e203160d01b606482015260840161027d565b60408051610140810182528481524260208201529081016000604051908082528060200260200182016040528015610c58578160200160208202803683370190505b5081526020808201859052604080830185905260006060840181905233608085015260a08401819052600160c0850181905260e09094019390935242835260028252909120825180519192610cb292849290910190610f0c565b50602082810151600183015560408301518051610cd59260028501920190610f90565b50606082015160038201556080820151600482015560a0820151600582015560c08201516006820180546001600160a01b0319166001600160a01b0392831617905560e08301516007909201805461010085015161012090950151939092166001600160a81b031990921691909117600160a01b931515939093029290921760ff60a81b1916600160a81b91151591909102179055600180548082018255600091909152427fb10e2d527612073b26eecdfd717e6a320cf44b4afac2b0732d9fcbe2b7fa0cf690910181905560405133917ff5d10ae5eef0f0573ea0c20232af691435b31e9355592054eae767892f36f79191610dd691908790869061140e565b60405180910390a2505050565b610e09604051806060016040528060001515815260200160608152602001606081525090565b3360009081526003602090815260408083208584528252918290208251606081018452815460ff161515815260018201805485518186028101860190965280865291949293858101939290830182828015610e8357602002820191906000526020600020905b815481526020019060010190808311610e6f575b5050505050815260200160028201805480602002602001604051908101604052809291908181526020018280548015610edb57602002820191906000526020600020905b815481526020019060010190808311610ec7575b5050505050815250509050919050565b60018181548110610efb57600080fd5b600091825260209091200154905081565b828054610f1890611526565b90600052602060002090601f016020900481019282610f3a5760008555610f80565b82601f10610f5357805160ff1916838001178555610f80565b82800160010185558215610f80579182015b82811115610f80578251825591602001919060010190610f65565b50610f8c929150610fe5565b5090565b828054828255906000526020600020908101928215610f80579160200282015b82811115610f8057825182546001600160a01b0319166001600160a01b03909116178255602090920191600190910190610fb0565b5b80821115610f8c5760008155600101610fe6565b6000806040838503121561100c578182fd5b82356001600160a01b0381168114611022578283fd5b946020939093013593505050565b600080600060608486031215611044578081fd5b833567ffffffffffffffff8082111561105b578283fd5b818601915086601f83011261106e578283fd5b813581811115611080576110806115a1565b604051601f8201601f19908116603f011681019083821181831017156110a8576110a86115a1565b816040528281528960208487010111156110c0578586fd5b826020860160208301379182016020908101959095525097928601359650505060409093013592915050565b6000602082840312156110fd578081fd5b5035919050565b6000815180845260208085019450808401835b8381101561113c5781516001600160a01b031687529582019590820190600101611117565b509495945050505050565b6000815480845260208085019450838352808320835b8381101561113c5781546001600160a01b03168752958201956001918201910161115d565b6000815180845260208085019450808401835b8381101561113c57815187529582019590820190600101611195565b60008151808452815b818110156111d6576020818501810151868301820152016111ba565b818111156111e75782602083870101525b50601f01601f19169290920160200192915050565b8054600090600181811c908083168061121657607f831692505b602080841082141561123657634e487b7160e01b86526022600452602486fd5b8388526020880182801561125157600181146112625761128d565b60ff1987168252828201975061128d565b60008981526020902060005b878110156112875781548482015290860190840161126e565b83019850505b5050505050505092915050565b60006101208083526112ae8184018d6111b1565b602084019b909b5250506040810197909752606087019590955260808601939093526001600160a01b0391821660a08601521660c0840152151560e0830152151561010090910152919050565b6000602082528251151560208301526020830151606060408401526113236080840182611182565b90506040840151601f198483030160608501526113408282611182565b95945050505050565b60006020825282516101408060208501526113686101608501836111b1565b9150602085015160408501526040850151601f1985840301606086015261138f8382611104565b92505060608501516080850152608085015160a085015260a085015160c085015260c08501516113ca60e08601826001600160a01b03169052565b5060e08501516101006113e7818701836001600160a01b03169052565b86015190506101206113fc8682018315159052565b90950151151593019290925250919050565b60008482526060602083015261142760608301856111b1565b9050826040830152949350505050565b600086825260a0602083015261145060a08301876111fc565b856040840152846060840152828103608084015261146e8185611147565b98975050505050505050565b600087825260c0602083015261149360c08301886111fc565b86604084015285606084015284608084015282810360a08401526114b78185611147565b9998505050505050505050565b600082198211156114d7576114d7611575565b500190565b6000826114eb576114eb61158b565b500490565b600081600019048311821515161561150a5761150a611575565b500290565b60008161151e5761151e611575565b506000190190565b600181811c9082168061153a57607f821691505b6020821081141561155b57634e487b7160e01b600052602260045260246000fd5b50919050565b6000826115705761157061158b565b500690565b634e487b7160e01b600052601160045260246000fd5b634e487b7160e01b600052601260045260246000fd5b634e487b7160e01b600052604160045260246000fdfea26469706673582212201794929dcbe26d311370debe639fe5d39050690b3b17fef360e99b3f4b800e2a64736f6c63430008030033",
  "linkReferences": {},
  "deployedLinkReferences": {}
}